S01100003370695F61707031312E7372656305
S11300000C9445000C9462000C9462000C94620001
S11300100C9462000C9462000C9462000C946200D4
S11300200C9462000C94EB060C9462000C94620035
S11300300C9462000C9462000C9462000C946200B4
S11300400C9462000C9462000C9462000C946200A4
S11300500C9462000C9462000C9462000C94620094
S11300600C9462000C9462003C034C0307031C03D1
S11300702C033C031C031C031C03000000000000B1
S1130080001F1F1F1F1F1F1FAF0711241FBECFEF0D
S1130090D8E0DEBFCDBF11E0A0E0B1E0EAE3FDE1CE
S11300A002C005900D92A833B107D9F721E0A8E367
S11300B0B1E001C01D92A83AB207E1F70E945C03C7
S11300C00C94900E0C94000060E08AE790E00E948B
S11300D0F50461E08BE790E00E94F50462E08CE7B0
S11300E090E00E94F50463E08DE790E00E94F5043F
S11300F064E08EE790E00E94F50465E08FE790E00D
S11301000E94F50466E080E890E00E94F5040E94F5
S113011068050895EF92FF921F93CF93DF93CDB7B5
S1130120DEB72A970FB6F894DEBF0FBECDBF7C01B1
S113013010E025C08AE0EAE0F1E0DE0111960190CA
S11301400D928A95E1F7E12FF0E0EE0FFF1FEE0D1F
S1130150FF1D20813181A7E4B4E10E94160D96951C
S113016087959695879596958795E1E0F0E0EC0F55
S1130170FD1FE80FF91F80810E94F8041F5F1530EE
S1130180C8F22A960FB6F894DEBF0FBECDBFDF913A
S1130190CF911F91FF90EF9008950F931F93CF93EA
S11301A0DF93CDB7DEB72A970FB6F894DEBF0FBE44
S11301B0CDBF80ED97E00E94AB070E9464001BC096
S11301C00E9435048C010E946805B801110F880B48
S11301D0990B0E94CC0589E191E00E94770561E0CA
S11301E080E00E94EF058CE191E00E94770584E6AF
S11301F090E00E94330780E10E94E806882301F31F
S113020080E10E94D40688EE93E00E94330700E068
S113021010E01AC0C8014497889738F068ED7FEF62
S113022088E290E00E94A50606C068E270E088EDCE
S11302309FEF0E94A50681E00E946F0784E190E091
S11302400E9433070F5F1F4F0035110518F360E05C
S113025070E080E090E00E94A50619C061E0CE0144
S113026001960E9475078C010E946805B80180E020
S113027090E00E94CC0561E080E00E94EF05CE0191
S113028001960E948A0084E690E00E94330780E190
S11302900E94E806882311F380E10E94D4060E949C
S11302A068052A960FB6F894DEBF0FBECDBFDF9166
S11302B0CF911F910F91089562E370E082E390E083
S11302C00E94A50686E990E00E94330760E070E092
S11302D080E090E00E94A5060895CF93C82F61E0C6
S11302E08AE991E00E947507CE3439F460E070E049
S11302F080E090E00E94A506B1C0CC3409F562E329
S113030070E08EEC9FEF0E94A50605C061E08AE9CB
S113031091E00E94750780919E0190919F01843F16
S11303209140A0F705C061E08AE991E00E94750759
S113033080919E0190919F01853F9140A0F38EC0D2
S1130340C23509F56EEC7FEF82E390E00E94A506CA
S113035005C061E08AE991E00E94750780919E01E1
S113036090919F01843F9140A0F705C061E08AE924
S113037091E00E94750780919E0190919F01853FB5
S11303809140A0F36BC0C33589F562E370E082E36A
S113039090E00E94A5068091A0019091A10180396E
S11303A0914068F08091A2019091A301813991401C
S11303B030F468E270E084E690E00E94A506809143
S11303C09C0190919D018039914008F447C080912F
S11303D09A0190919B018139914008F03FC064E6F5
S11303E070E088E290E00E94A50638C0C23409F5A6
S11303F06EEC7FEF8EEC9FEF0E94A5068091A0012A
S11304009091A1018039914030F069EC7FEF8EEC3E
S11304109FEF0E94A50680919C0190919D018039D7
S11304209140E0F06EEC7FEF89EC9FEF0E94A5060F
S113043015C0C43599F46BE470E085EB9FEF0E941E
S1130440A50605C061E08AE991E00E9475078091E4
S11304509E0190919F01843F9140A0F7CF91089510
S113046061E08AE991E00E94750780919C01909176
S11304709D01843F21E09207C0F02091A0013091BA
S1130480A101243F314088F00E945C0161E08AE9C7
S113049091E00E94750780919E0190919F01843F95
S11304A0914008F491C088E00895843F21E09207C8
S11304B000F120919A0130919B01243F3140C8F012
S11304C00E945C0161E08AE991E00E9475078091D5
S11304D09E0190919F01843F914008F077C08091E4
S11304E0A0019091A101843F914008F471C086E07D
S11304F008954091A0015091A101443F61E0560745
S113050000F12091A2013091A301243F3140C8F0B1
S11305100E945C0161E08AE991E00E947507809184
S11305209E0190919F01843F914008F053C08091B7
S11305309C0190919D01843F914008F44DC085E059
S1130540089520919E0130919F01293C310508F4C2
S113055045C0243F61E0360708F482CF243F61E0C0
S11305603607F0F1453F5140E8F54091A201509122
S1130570A301443F5140C0F140919A0150919B0125
S1130580443F514098F1853F914090F5243F3140DC
S113059058F480E0089561E08AE991E00E947507CB
S11305A083E590E00E946D018091A2019091A301E6
S11305B08039914080F780919A0190919B01803914
S11305C0914048F782E0089587E0089586E0089511
S11305D083E0089585E0089584E0089581E0089516
S11305E080E0089580E0089580E0089580E0089513
S11305F080E008950E94300280939201E82FF0E099
S1130600E930F105B8F7EC5CFF4F0C94100D0E9433
S1130610680560E080E00E94EF0584E291E00E94BA
S1130620770560E070E080E090E00E94A50688EE27
S113063093E00E943307DECF0E94680560E080E00B
S11306400E94EF058DE291E00E9477058CE40E9400
S11306506D010E946805CECF0E94680560E080E0CD
S11306600E94EF058FE291E00E94770582E50E94E7
S11306706D010E946805BECF0E94680560E080E0BD
S11306800E94EF0581E391E00E94770583E50E94D3
S11306906D010E946805AECF0E94680560E080E0AD
S11306A00E94EF0583E391E00E94770584E50E94B0
S11306B06D010E9468059ECF80ED97E00E94AB0714
S11306C00E94CD000E94FA02ECE7F0E080818F7D69
S11306D080830895811103C00E946403089580916A
S11306E07C00806280937C00089580917C0085FB6F
S11306F0882780F908950E947503882321F080914A
S1130700790090E00895809178009091790008959F
S11307108032A0F497E890937A0090917C0066234D
S113072011F0906C02C09F779064907E982B909308
S11307307C0080917A00806480937A000895A0E020
S1130740B0E0E5EAF3E00C94420DEB0160E00E94B6
S1130750880380917A0086FDFCCF8E01C12CD12CB8
S1130760760180917A00806480937A0080917A0087
S113077086FDFCCF0E947B03C80ED91EE11CF11C30
S1130780015011090115110561F7CE019695879560
S1130790C034D10538F48C0D9D1DBE010E94BB0CE4
S11307A0CB010EC0A7019601280F391F411D511D11
S11307B0CA01B9019E0140E050E00E94CF0CC9017A
S11307C0CDB7DEB7E8E00C945E0DCF92DF92EF92E6
S11307D0FF92A0910001B09101019C010E94160DAD
S11307E06B017C010E947503882359F0C701B6018F
S11307F061587F4F8F4F9F4F2FEF30E040E050E024
S11308000AC0C701B60161507E4F8F4F9F4F2FEF33
S113081033E040E050E00E94CF0CC901FF90EF901C
S1130820DF90CF9008950E949F030E94E5030895EE
S11308301F93CF93DF930E947503182F0E946403C4
S11308406AE070E086E00E941304EC01812F0E94AC
S11308506A03CE01880F991F8C0F9D1F01969695F0
S11308608795DF91CF911F9108950E9418040895F0
S113087081E090E06F9364E06A95F1F76F910197DE
S1130880C9F708950F931F93CF93DF931AB1579825
S11308905A98289AC0E0D0E00E9438045C9A0E94DA
S11308A0380409B15C980E9438045C9A0E943804A8
S11308B05C98249607FF10C0AE0160E070E0809160
S11308C0380190913901A0913A01B0913B01481748
S11308D059076A077B0700F31AB9DF91CF911F917B
S11308E00F91089595B1282F217030E0220F331F06
S11308F0482F467068E0469FA0011124242B9D7C5C
S1130900292B25B99BB188708295807F9F77892B8D
S11309108BB95C9A0E9438045C980E94380408954C
S1130920A0E0B0E0E6E9F4E00C94430DC82FD62E25
S1130930E42E80919301811105C081E0809393019D
S11309400E9400050E94420414B1D5B1FAB00BB163
S11309502898DD2011F05A9A01C05A9894B19263F4
S113096094B9579A81E0E81629F08C2F82958F70FC
S11309700E9472048C2F8F700E947204FAB80BB913
S113098014B9D5B9CDB7DEB7E7E00C945F0D42E0FA
S113099060E00E949004089542E061E00E949004A7
S11309A00895A1E0B0E0E7EDF4E00C94440D8C016F
S11309B0660F660F660FE12CF12C8E2D860F806476
S11309C069830E94C704F801EE0DFF1D84910E9403
S11309D0CC048FEFE81AF80A6981E8E0EE16F10416
S11309E061F72196E6E00C94600D0E94D10408950D
S11309F00E94CC04089541E060E00E9490040895B0
S1130A0080E197E2A0E0B0E080933801909339014F
S1130A10A0933A01B0933B01529A209A549A8EE1E2
S1130A2090E00E94330783E00E94FB0486E090E09C
S1130A300E94330783E00E94FB0482E090E00E945E
S1130A40330783E00E94FB0482E090E00E943307B6
S1130A5082E00E94FB0482E090E00E94330788E277
S1130A600E94C70488E00E94C70481E00E94C70472
S1130A7086E00E94C7048CE00E94C704089581E0C8
S1130A800E94C70480913E0190913F01892BF9F0A7
S1130A9060E0A0E2262F30E0709102018091030112
S1130AA090E00197789FA001799F500D112424179D
S1130AB035074CF4E0913E01F0913F01E20FF31F42
S1130AC0A0836F5FE7CF10923C0110923D0108951F
S1130AD00E943F050895CF93DF93EC018991882309
S1130AE019F00E94CC04FACFDF91CF9108950E94AF
S1130AF06B050895AAE0B0E0E0E8F5E00C94420D3F
S1130B001AE05AE0C52ED12CE12CF12C062FA701B6
S1130B1096010E94CF0CCA01B9011150E1E0F0E046
S1130B20EC0FFD1FE10FF11D005D2AE0629F00192B
S1130B3011240083611571058105910539F71A3077
S1130B4058F4E1E0F0E0EC0FFD1FE10FF11D8081AE
S1130B500E94CC041F5FF3CF2A96E8E00C945E0D4C
S1130B60CF92DF92EF92FF926B017C0197FF0BC053
S1130B70F094E094D094C094C11CD11CE11CF11CED
S1130B808DE20E94CC04C701B6010E947A05FF9051
S1130B90EF90DF90CF9008950E94B0050895A5E0EE
S1130BA0B0E0E5EDF5E00C94470D182F80E889835B
S1130BB080EC8A8384E98B8384ED8C83FE01E60FC9
S1130BC0F11D8181810F6D830E94C70410933C0144
S1130BD06D8160933D012596E3E00C94630D0E94C2
S1130BE0CF050895883058F491E001C0990F8A9593
S1130BF0EAF7892FAAE2B0E0EBE2F0E021C08E3000
S1130C0060F498EF980F81E001C0880F9A95EAF795
S1130C10A4E2B0E0E5E2F0E013C0853160F492EFC5
S1130C20980F81E001C0880F9A95EAF7A7E2B0E037
S1130C30E8E2F0E005C080E0A0E0B0E0E0E0F0E051
S1130C406F3F19F49081982709C0662319F09081A9
S1130C50982B04C02081982F9095922390839C9187
S1130C60982B9C93089583EF8093B00084BD82E019
S1130C708093B10085BD1092B4001092B30018BCEB
S1130C8017BC60E086E00E94F20560E085E00E9407
S1130C90F20560E08BE00E94F20560E083E00E94D0
S1130CA0F205089580919401811105C081E080933B
S1130CB094010E9433060895CF93DF93EC010E94C0
S1130CC05206D7FF05C0D195C195D10981E001C075
S1130CD080E0CF3FD10519F014F0CFEFD0E08823A6
S1130CE019F018BCC7BD02C0C8BD17BCDF91CF91B5
S1130CF00895CF93DF93EC010E945206D7FF05C0FD
S1130D00D195C195D10981E001C080E0CF3FD105E3
S1130D1019F014F0CFEFD0E0882329F01092B4003A
S1130D20C093B30004C0C093B4001092B300DF9129
S1130D30CF910895CF93DF93EB010E945C06CE011F
S1130D400E947906DF91CF9108950E949A06089532
S1130D5084B18D7C84B985B1826385B985E090E0E6
S1130D606F9364E06A95F1F76F910197C9F708955D
S1130D7080919501811105C081E0809395010E94C5
S1130D80A8060895CF93C82F0E94B80683B18C2378
S1130D90E9F38AE090E00E94330783B18C23B1F336
S1130DA083B18C23CF9108950E94C2060895A1E0D7
S1130DB0B0E0EDEDF6E00C94480D89830E94B8068E
S1130DC093B19095898189232196E2E00C94640D76
S1130DD00E94D70608952F928F939F932FB68091E8
S1130DE047019091480101968093470190934801EF
S1130DF090E080914901891F8093490190914101BC
S1130E009C5F909341018091400180519742C0F0D2
S1130E10909341018093400180914201909143015C
S1130E200196809342019093430190E080914401A4
S1130E30891F8093440180914501891F8093450156
S1130E402FBE9F918F912F90189528EE33E0019734
S1130E5048F0F9016F9364E06A95F1F76F91319767
S1130E60C9F7F5CF08950E9425070895E0E7F0E05B
S1130E7080818E7F8083A0EBB0E08C9183608C9323
S1130E80A1EBB0E08C91807F8C938C9182608C93E9
S1130E90B89A8081816080837894089580919601C6
S1130EA0811105C081E0809396010E943607089560
S1130EB00E944E07E0E7F0E080818E7F80831092ED
S1130EC04201109243011092440110924501109284
S1130ED04101109240018081816080830895682FD0
S1130EE08AE491E00E94570B0895462F20E0BC014C
S1130EF08AE491E00E94280C08950F93CF93DF9326
S1130F0000D000D01F92CDB7DEB79C0185E0E4E1AC
S1130F10F1E0DE01119601900D928A95E1F76623C6
S1130F2011F00FEF01C003E145E0BE016F5F7F4F99
S1130F308AE491E00E944F088AE491E00E94260826
S1130F400E9458070F900F900F900F900F90DF9111
S1130F50CF910F91089560E00E947D0708958AE47F
S1130F6091E00E949D0C08956F9364E06A95F1F7F7
S1130F706F910197C9F70895FC01118210821382C1
S1130F801282158214821682683068F489E290E035
S1130F90918380838BE290E0938382838AE290E062
S1130FA0958384831FC06E3070F483E290E0918354
S1130FB0808385E290E09383828384E290E095834A
S1130FC0848368500FC0653198F486E290E0918381
S1130FD0808388E290E09383828387E290E0958324
S1130FE084836E5081E001C0880F6A95EAF7868396
S1130FF00895A7E0B0E0EFEFF7E00C94460D8C0104
S1131000FC011182108213821282158214821782CB
S11310101682613118F080E1808702C0FC0160878C
S1131020F801208B642FCE0101960E94BC078F81AA
S1131030F80181878B819C81938782878D819E8132
S1131040958784872796E4E00C94620DFC01A485BF
S1131050B585109779F08C919185892B8C93A28515
S1131060B3859C918185809589238C9388EC90E04D
S11310700E94B4070895FC01A485B585109771F00A
S11310808C919185892B8C93A285B3858C919185C4
S1131090892B8C9388EC90E00E94B4070895A7E014
S11310A0B0E0E5E5F8E00C943B0D7C014B01642FC6
S11310B03901402F20E00E94F90787010F5B1F4F81
S11310C0F80110826701F2E4CF0ED11CF601108200
S11310D05701F3E4AF0EB11CF5011082F7017786D6
S11310E06686512CF7018085581650F5652C712CB5
S11310F0F401E60DF71D6081CE0101960E94BC0744
S11311002F81F701E60DF71D218B89819A81F30167
S1131110EE0FFF1FEE0DFF1D92A381A383329105F5
S113112011F4F80108C08632910511F4F60103C0E8
S1131130899721F4F5018081822B80835394D2CF47
S11311402796EFE00C94570DA0E0B0E0EAEAF8E04F
S11311500C943D0DEC015B016C0181E4C80ED11CC3
S1131160F60180807E01F2E4EF0EF11CF70170803D
S11311708E010D5B1F4FF801908080E098858917E0
S113118048F4F501E80FF11DE80FF11D11821082FA
S11311908F5FF4CF84B1F6019081892B84B987B134
S11311A0F7019081892B87B98AB1F8019081892B45
S11311B08AB985B1F6019081892B85B988B1F70187
S11311C09081892B88B98BB1F8019081892B8BB9D7
S11311D08AE090E00E94B40794B1F6018081809582
S11311E0892384B997B1F70180818095892387B9D0
S11311F09AB1F8018081809589238AB995B1F60165
S113120080818095892385B998B1F7018081809583
S1131210892388B99BB1F8018081809589238BB992
S1131220E090B000D090B1008091B00083608093D2
S1131230B00082E08093B1004091B20080E090E081
S11312402E853F858217930720F5C090B2002C2D80
S1131250241B820F911D03B1081132C0F6B0F710A0
S11312602FC029B129112CC010C0212F30E0A901B1
S1131270440F551FF501E40FF51F60817181672B41
S113128021F11F5F2885121780F37F2C802E4C2DAF
S1131290D7CFE092B000D092B10020E08885281723
S11312A030F5F501E20FF11DE20FF11D808191810E
S11312B0892B21F48E859F85918380832F5FEECFC8
S11312C003B1F6B099B010E0DDCFDE01A40FB51F75
S11312D091960D90BC91A02D4C91DE01A20FB31FED
S11312E051962C91422369F691838083CACFCDB75E
S11312F0DEB7EDE00C94590DEF92FF920F931F931C
S1131300CF93DF93FC019B01F0907C0000917A0065
S113131047B118B180917A0086FDFCCF80E09085BA
S1131320891748F4D901A80FB11DA80FB11D1D924A
S11313301C928F5FF4CF97B182A18095892387B9DE
S113134098B182A18095892388B987E880937A002F
S1131350E12C81A1E81610F0E12C29C050E0808531
S1131360581718F5A52FB0E0EF01CA0FDB1F8989C4
S1131370806480937C0080917A00806480937A00FA
S113138080917A0086FDFCCF60917800709179009D
S1131390AA0FBB1FA20FB31F8D919C911197860FAB
S11313A0971F8D939C935F5FDACFE394D2CF8085B0
S11313B0E816A0F4E901CE0DD11DCE0DD11D61A119
S11313C070E0CB0195958795A881B9818A0F9B1F01
S11313D00E94BB0C79836883E394E9CFF0927C008C
S11313E000937A0018B947B9CDB7DEB7E6E00C949C
S11313F0600DA0E2B0E0EFEFF9E00C94430D8C0136
S11314007B01D42E8FEF840F823018F4C8010E9420
S11314103B08D80150968C91B701811110C0C801C6
S11314200E94A408C8010E942608B2E0DB123AC058
S1131430BE016F5F7F4FC8010E94A4080FC0C8019E
S11314400E947C09C8010E942608E2E0DE122AC03C
S1131450BE016F5F7F4FC8010E947C0940E0F80124
S113146080854817F8F4842F90E0880F991FF701BE
S1131470E80FF91F21E030E02C0F3D1F820F931F6E
S1131480D8011E962D913C911F97DC018D919C9162
S1131490281B390B80819181820F931F9183808354
S11314A04F5FDDCFA096E7E00C945F0D2F923F9243
S11314B05F926F927F928F929F92AF92BF92CF92E0
S11314C0DF92EF92FF920F931F93CF93DF93CDB7E9
S11314D0DEB7C056D1090FB6F894DEBF0FBECDBF3C
S11314E08C014B015A01522EDA018D919C91892B6A
S11314F031F0F40180819181892BF1F424C0D80169
S113150018968C9190E0880F991F0E946F0DF50139
S113151091838083009709F4B1C0FC0120E030E09E
S1131520D80118968C9190E02817390714F7119276
S113153011922F5F3F4FF4CFE12CF12C6E01B1E2F9
S1131540CB0ED11C21C0F801808590E0880F991F33
S11315500E946F0DD4018D939C93009709F48EC063
S1131560FC0120E030E0D80118968C9190E0281717
S1131570390714F7D8011E968D919C911F9781937A
S113158091932F5F3F4FEFCF452DBE016F5B7F4F90
S1131590C8010E94F909F8016084712CFE01EF5B17
S11315A0FF4FC6019E012F5F3F4F190120E030E03D
S11315B0261537054CF5E114F10489F0DC016D9131
S11315C07C91408151816417750748F0D1016D9178
S11315D07C91408151814617570748F00DC04081E6
S11315E05181DC014D935C93E114F10479F740815E
S11315F05181D1014D935C932F5F3F4FB2E02B0E8D
S1131600311C32960296D4CFEFEFEE1AFE0AFAE0BE
S1131610EF16F10409F0B8CF9E012F5F3F4F790117
S1131620360180E090E0F801208530E082179307CE
S11316302CF5D7012D913D917D01B3016C197D09E4
S1131640D501ED91FC91E60FF71F408151814217BE
S1131650530710F431832083F301219131913F0129
S1131660D401ED91FC91E60FF71F408151812417BD
S1131670350710F4318320830196D5CFC05ADF4F4C
S11316800FB6F894DEBF0FBECDBFDF91CF911F918F
S11316900F91FF90EF90DF90CF90BF90AF909F900D
S11316A08F907F906F905F903F902F9008951F933D
S11316B0CF93DF93EC01162F8FEF860F823018F053
S11316C0662359F014C021E0AE014E5F5F4FBE01A6
S11316D0CE010E94560A123051F4AE014A5F5F4FA8
S11316E0BE016C5F7F4F20E0CE010E94560ADF915D
S11316F0CF911F910895A0E0B0E0E1E8FBE00C94E5
S1131700410DEC018B01B42E842F8D7F51F48C811B
S11317109D81892B09F497C08E819F81892B09F4BF
S113172092C08FEF8B0D823050F488819981892B80
S113173009F489C08A819B81892B09F484C04B2DCB
S1131740B801CE010E94F909780100E010E0C12C33
S1131750D12C888590E0C816D9060CF074C081E0BD
S1131760B8120AC0EA81FB81E00FF11F0190F081F9
S1131770E02DA881B9810DC08C819D812E813F818E
S1131780B1100CC0F901E00FF11F0190F081E02DC0
S1131790DC01A00FB11F8D919C9128C0FC01E00FCA
S11317A0F11F40815181E881F981E00FF11F8081AF
S11317B09181EE85FF854817590710F4CF0104C0C5
S11317C08E0F9F1F841B950BD901A00FB11F2D9164
S11317D03C91AA81BB81A00FB11F4D915C9124174C
S11317E0350720F0E40FF51FE21BF30BE81BF90BA0
S11317F0A9F0D7012D913C9140E050E0281B390B12
S113180041095109A8EEB3E00E94250D9F0140E073
S113181050E00E94F10C37FD0AC002C020E030E025
S1131820293EB3E03B072CF028EE33E002C020E071
S113183030E0F701219331937F01FFEFCF1ADF0AE4
S11318400E5F1F4F86CFCDB7DEB7E9E00C945D0D78
S1131850A0E0B0E0EEE2FCE00C94380DEC018B016A
S1131860822E0E947B0B2884E801412C512C3201EA
S113187000E010E0C12CD12C7601312C912C58EED3
S1131880A52E53E0B52E921421F1E991F991882007
S113189021F0C5018E1B9F0BFC01E93CF10524F4EA
S11318A0E333F10574F002C033243394DF01A30160
S11318B092010E94300DC60ED71EE81EF91E0E0FAF
S11318C01F1F939498EE490E93E0591E611C711CDE
S11318D0DACF31101EC0492D50E04150510924EF98
S11318E031E0429FC001439F900D529F900D1124FF
S11318F020918E0130918F0128173907B4F088EEBA
S113190093E0489F9001499F300D589F300D11245A
S11319100EC0980140E050E0C701B6010E94CF0C10
S113192030938F0120938E0102C020E030E0C90182
S1131930CDB7DEB7E2E10C94540DCF93DF93EC0105
S11319408A819B81009711F00E94070E8E819F81EE
S1131950009711F00E94070E88819981009711F079
S11319600E94070E8C819D81009711F00E94070E42
S1131970DF91CF910895AA1BBB1B51E107C0AA1F99
S1131980BB1FA617B70710F0A61BB70B881F991F1C
S11319905A95A9F780959095BC01CD010895A1E2CF
S11319A01A2EAA1BBB1BFD010DC0AA1FBB1FEE1FD5
S11319B0FF1FA217B307E407F50720F0A21BB30B20
S11319C0E40BF50B661F771F881F991F1A9469F79C
S11319D060957095809590959B01AC01BD01CF01F8
S11319E00895052E97FB1EF400940E94080D57FDE0
S11319F007D00E94CF0C07FC03D04EF40C94080DC2
S1131A0050954095309521953F4F4F4F5F4F089526
S1131A1090958095709561957F4F8F4F9F4F089556
S1131A20EE0FFF1F0590F491E02D0994A29FB001E1
S1131A30B39FC001A39F700D811D1124911DB29FFE
S1131A40700D811D1124911D08950E94160DA59FEE
S1131A50900DB49F900DA49F800D911D11240895A5
S1131A60B7FF0C94250D0E94250D821B930B08953E
S1131A702F923F924F925F926F927F928F929F929A
S1131A80AF92BF92CF92DF92EF92FF920F931F9388
S1131A90CF93DF93CDB7DEB7CA1BDB0B0FB6F89439
S1131AA0DEBF0FBECDBF09942A88398848885F8479
S1131AB06E847D848C849B84AA84B984C884DF80EA
S1131AC0EE80FD800C811B81AA81B981CE0FD11DCE
S1131AD00FB6F894DEBF0FBECDBFED0108950F938E
S1131AE01F93CF93DF938230910510F482E090E04E
S1131AF0E091A601F091A70120E030E0A0E0B0E081
S1131B00309719F140815181028113814817590797
S1131B10C8F08417950769F4109731F012960C9366
S1131B20129713961C9327C00093A6011093A70144
S1131B3022C02115310519F04217530718F49A01F0
S1131B40BD01EF01DF01F801DBCF21153105F9F00B
S1131B50281B390B2430310580F48A819B8161155F
S1131B60710521F0FB019383828304C09093A70144
S1131B708093A601FE01329644C0FE01E20FF31FDA
S1131B808193919322503109398328833AC020915B
S1131B90A4013091A501232B41F420910601309139
S1131BA007013093A5012093A401209104013091F1
S1131BB005012115310541F42DB73EB740910801C7
S1131BC050910901241B350BE091A401F091A5016A
S1131BD0E217F307A0F42E1B3F0B2817390778F000
S1131BE0AC014E5F5F4F2417350748F04E0F5F1F5F
S1131BF05093A5014093A4018193919302C0E0E026
S1131C00F0E0CF01DF91CF911F910F910895CF9311
S1131C10DF93009709F481C0FC013297138212828A
S1131C20A091A601B091A701109781F42081318180
S1131C30820F931F2091A4013091A5012817390721
S1131C4051F5F093A501E093A40167C0ED0120E0F4
S1131C5030E0CE17DF0740F44A815B819E014115D5
S1131C605105F1F0EA01F5CFD383C283408151815C
S1131C70840F951FC817D90759F488819981840F57
S1131C80951F0296918380838A819B8193838283AB
S1131C902115310529F4F093A701E093A6013DC075
S1131CA0E901FB83EA8349915991C40FD51FEC17CD
S1131CB0FD0761F480819181840F951F0296E901EB
S1131CC099838883828193819B838A83E0E0F0E017
S1131CD012968D919C911397009719F0FD01DC01E8
S1131CE0F7CF8D919C9111979D012E5F3F4F820FED
S1131CF0931F2091A4013091A5012817390769F495
S1131D00309729F41092A7011092A60102C0138201
S1131D101282B093A501A093A401DF91CF910895FD
S1131D2010E0C4E4D0E004C0FE010E94100D21962E
S10D1D30C534D107C9F7F894FFCFBA
S1131D3A881308020000A801200020000001020301
S1131D4A040506FF0E0F1011126D560050726573CA
S1131D5A7320420062617220636F6465004C005212
S10B1D6A005300456E64000003
S9030000FC
