:100000000C9457000C9474000C9474000C947400BD
:100010000C9474000C9474000C9474000C94740090
:100020000C9474000C9406090C9474000C947400E5
:100030000C9474000C94CE050C9474000C94740011
:100040000C9474000C9474000C9474000C94740060
:100050000C9474000C9474000C9474000C94740050
:100060000C9474000C947400000000000000001F49
:100070001F1F1F1F1F1F4C31362063646567726589
:100080006734003E6733323E3E63333200666F6C46
:100090006C6F776572004C696E650033F720526FA4
:1000A000626F740020506F6C6F6C7500CA09112468
:1000B0001FBECFEFD8E0DEBFCDBF11E0A0E0B1E0C2
:1000C000E8E8F1E202C005900D92AA34B107D9F731
:1000D00021E0AAE4B1E001C01D92A53BB207E1F71F
:1000E0000E94A0010C94B7100C94000060E088E618
:1000F00090E00E94FF0661E089E690E00E94FF0622
:1001000062E08AE690E00E94FF0663E08BE690E002
:100110000E94FF0664E08CE690E00E94FF0665E026
:100120008DE690E00E94FF0666E08EE690E00E9479
:10013000FF060E9472070895EF92FF921F93CF93DC
:10014000DF93CDB7DEB72A970FB6F894DEBF0FBEA8
:10015000CDBF7C0110E025C08AE0E4E1F1E0DE01E2
:10016000119601900D928A95E1F7E12FF0E0EE0FE4
:10017000FF1FEE0DFF1D20813181A7E4B4E10E9435
:10018000370F969587959695879596958795E1E093
:10019000F0E0EC0FFD1FE80FF91F80810E940207BD
:1001A0001F5F1530C8F22A960FB6F894DEBF0FBE57
:1001B000CDBFDF91CF911F91FF90EF9008950F93E6
:1001C0001F93CF93DF93CDB7DEB72A970FB6F8947E
:1001D000DEBF0FBECDBF80ED97E00E94C6090E9432
:1001E000760084EA90E00E94920761E080E00E943D
:1001F0000A088BE990E00E94920783E890E00E9451
:100200003F0688EE93E00E944E090E94720786E93D
:1002100090E00E94920761E080E00E940A088DE869
:1002200090E00E94920788EE93E00E944E091BC066
:100230000E9414038C010E947207B801110F880BF1
:10024000990B0E94E7078BE391E00E94810761E030
:1002500080E00E940A088EE391E00E94810784E614
:1002600090E00E944E0980E10E940309882301F377
:1002700080E10E94EF0888EE93E00E944E0900E0C2
:1002800010E01AC0C8014497889738F068ED7FEFF6
:1002900088E290E00E94C00806C068E270E088ED45
:1002A0009FEF0E94C00881E00E948A0984E190E0EB
:1002B0000E944E090F5F1F4F0035110518F360E0D3
:1002C00070E080E090E00E94C00819C061E0CE01BB
:1002D00001960E9490098C010E947207B80180E08B
:1002E00090E00E94E70761E080E00E940A08CE01EA
:1002F00001960E949C0084E690E00E944E0980E1F5
:100300000E940309882311F380E10E94EF080E94F4
:10031000720786E491E00E94810786E790E00E94E0
:100320003F060E942E068111FCCF2A960FB6F89444
:10033000DEBF0FBECDBFDF91CF911F910F9108950A
:10034000CF93DF93CDB7DEB761970FB6F894DEBFDA
:100350000FBECDBF0E94DF008BE391E00E948107BA
:1003600061E0CE0101960E949009883E23E0920749
:1003700068F58BE391E00E94810764E670E080E01D
:1003800090E00E94C0084BE250E05E874D872AE271
:1003900030E0388B2F8782E0898B8BB182608BB9FC
:1003A000EF85F88990818989892B80835E874D87C5
:1003B000388B2F8780E8898B8BB18F778BB9EF854E
:1003C000F88990818989892B8083C6CF883B9B409F
:1003D00068F58BE391E00E94810764E670E084E6B3
:1003E00090E00E94C0084BE250E05E874D872AE211
:1003F00030E0388B2F8782E0898B8BB182608BB99C
:10040000EF85F88990818989892B80835E874D8764
:10041000388B2F8780E8898B8BB180688BB9EF850B
:10042000F88990818989892B808396CF8BE391E02D
:100430000E94810760E070E084E690E00E94C008BE
:100440004BE250E05E874D872AE230E0388B2F8701
:1004500082E0898B8BB18D7F8BB9EF85F889908194
:100460008989892B80835E874D87388B2F8780E829
:10047000898B8BB180688BB9EF85F88990818989E8
:10048000892B808369CFECE7F0E080818F7D8083CA
:100490000895811103C00E944302089580917C0059
:1004A000806280937C00089580917C0085FB882782
:1004B00080F908950E945402882321F080917900E8
:1004C00090E00895809178009091790008958032AD
:1004D000A0F497E890937A0090917C00662311F045
:1004E000906C02C09F779064907E982B90937C00D4
:1004F00080917A00806480937A000895A0E0B0E053
:10050000E4E8F2E00C94630FEB0160E00E94670204
:1005100080917A0086FDFCCF8E01C12CD12C760112
:1005200080917A00806480937A0080917A0086FDC1
:10053000FCCF0E945A02C80ED91EE11CF11C0150CA
:1005400011090115110561F7CE0196958795C03403
:10055000D10538F48C0D9D1DBE010E94E20ECB0129
:100560000EC0A7019601280F391F411D511DCA0158
:10057000B9019E0140E050E00E94F60EC901CDB7DE
:10058000DEB7E8E00C947F0FCF92DF92EF92FF92FC
:10059000A0910001B09101019C010E94370F6B01F5
:1005A0007C010E945402882359F0C701B6016158AA
:1005B0007F4F8F4F9F4F2FEF30E040E050E00AC059
:1005C000C701B60161507E4F8F4F9F4F2FEF33E031
:1005D00040E050E00E94F60EC901FF90EF90DF90DE
:1005E000CF9008950E947E020E94C40208951F9336
:1005F000CF93DF930E945402182F0E9443026AE0B7
:1006000070E086E00E94F202EC01812F0E94490214
:10061000CE01880F991F8C0F9D1F01969695879587
:10062000DF91CF911F9108950E94F7020895909154
:100630004F01E0914A01F0914B01992311F084910F
:1006400001C080812FEB280F2A3110F4805E0895BD
:10065000803249F49F012F5F3F4F30934B0120932D
:100660004A01EF2B31F708951F93CF93DF930E9438
:100670001703C0E0D0E01AE090ED980F9A30B8F47C
:100680009E01129FE001139FD00D1124C80FD11DB0
:1006900087FDDA95E09780914A0190914B01019690
:1006A00090934B0180934A010E941703E5CFCE013E
:1006B000DF91CF911F91089510926F0083E2809394
:1006C000800081E1809381001092820080E197E2B6
:1006D000909389008093880010928B0010928A007A
:1006E000229A789408958F929F92AF92BF92DF9250
:1006F000EF92FF920F931F93CF93DF935C018B01D7
:10070000D42E80914C01811105C081E080934C0171
:100710000E945C0310920B01B7FE05C0E894B7F885
:100720002AE0F22E02C0FF24F394E09081002E2DE7
:10073000287FE22E48ECF49EC00111248A159B0507
:10074000E0F4E50151E1A51657E2B50610F0C0E16D
:10075000D7E2BE017695679580E090E060587946D3
:1007600087469F4F4E01A12CB12CA50194010E94F8
:10077000F60E59018E2D816024C0C8E2FC9EC02D6A
:100780001124D0E0CA15DB0508F4E501BE01769519
:1007900067959E0140E050E08AE0F81207C080E0D3
:1007A00090E0605E734481449F4F06C080E090E01B
:1007B00060537D4E8C4E9F4F0E94F60E59018E2D38
:1007C0008260882E2AE0F21207C0CE0105966AE008
:1007D00070E00E94E20EEB01C83E43E0D40759F0FE
:1007E0009801DE010E94370F28EE33E040E050E030
:1007F0000E94180F890110926F0080928100B092C0
:100800008900A092880020918800309189004D2DA8
:10081000403108F04FE080E190E0841B9109A9018C
:1008200002C0569547958A95E2F750938B00409306
:100830008A00109352010093510186B38FEF86BB5B
:1008400081E080936F00DF91CF911F910F91FF9016
:10085000EF90DF90BF90AF909F908F900895CF93CF
:10086000DF93EB018F3F11F0411105C040E0BE0165
:1008700088EE93E043C0813130F050EF580F50368E
:1008800018F05FE501C050E0852F6CE00E94D60EA5
:10089000682F74EF760390011124250F311D2C3041
:1008A000310540F4F901EE0FFF1FE25EFE4F20819B
:1008B000318102C020E030E0873081F0082E02C094
:1008C000220F331F0A94E2F7823028F0C9010596FF
:1008D0006AE070E00CC0C90190580CC0C90136E054
:1008E000880F991F3A95E1F7029665E070E00E9443
:1008F000E20ECB01403108F04FE0BE010E947303CD
:10090000DF91CF910895A2E0B0E0E9E8F4E00C9423
:100910005B0F90900A0180914E01882321F0609135
:100920004D01611117C077247394B0ECAB2EBDE577
:10093000BB2E1AE0612E04E0802E80EDC82E87E0E9
:10094000D82E94E0E92EF12C04EF11E02FE0422E96
:10095000512C15C070E040E088EE93E00E947303D4
:1009600010924D0117C18636D4F5813609F4A9C01D
:100970007CF58C3309F460C08E3381F493940E942B
:10098000170320914A0130914B012F5F3F4F309365
:100990004B0120934A01853631F752C0813209F06C
:1009A0008BC080920A01D0920901C0920801F09296
:1009B0000701E09206011093050100930401509293
:1009C00003014092020110924E01A4E09A2ED7CF6B
:1009D0008336A1F10CF478C010E082E077C08D3648
:1009E000C1F194F4873691F174F18C3609F064C04A
:1009F0000E943403BC01909307018093060180910B
:100A000008019091090151C08237C9F14CF48F3629
:100A100009F052C00E943403982E80930A01AFCF90
:100A2000843781F1863709F047C00E9434039093E0
:100A3000030180930201A3CF9A94A1CF10E020C0BC
:100A400010E084E043C010E085E040C010E087E0A3
:100A50003DC00E9417038C3619F410924E0104C059
:100A600070924E0110924D0120914A0130914B013C
:100A70002F5F3F4F30934B0120934A0180CF11E00D
:100A800080E024C00E943403BC01C5010E94E20E34
:100A9000669EC001679E900D11249093090180937A
:100AA000080160910601709107010E94E20E7093A7
:100AB00005016093040163CF10924B0110924A012B
:100AC00069C010E089E002C010E08BE0082F9CE0D4
:100AD000999E000D11240E941703982F977F93323F
:100AE00061F420914A0130914B012F5F3F4F3093C9
:100AF0004B0120934A010F5FEECF8D3271F42091AC
:100B00004A0130914B012F5F3F4F30934B012093AF
:100B10004A0101500E941703F0CF609104017091C7
:100B200005018153883050F4E0900801F0900901EC
:100B30000E943403BC01C7010E94E20E7B01F694BF
:100B4000E79469837A830E94170369817A818E32E0
:100B500069F420914A0130914B012F5F3F4F309350
:100B60004B0120934A016E0D7F1DE9CF80914E010C
:100B7000882339F09B013695279520934D01621B00
:100B8000710940910201112311F08FEF01C0802FF4
:100B90000E942F042296E0E10C94770F1F920F928F
:100BA0000FB60F9211242F933F934F935F936F9340
:100BB0007F938F939F93AF93BF93EF93FF93809116
:100BC0005101909152019C01215031093093520101
:100BD00020935101892B11F510926F007894809128
:100BE0008100887F81608093810080E197E290930B
:100BF00089008093880010928B0010928A0081E017
:100C000080930B0180914A0190914B01892B31F027
:100C100080915001811102C00E948304FF91EF91E5
:100C2000BF91AF919F918F917F916F915F914F9104
:100C30003F912F910F900FBE0F901F9018958091AC
:100C40000B01882349F081E020914A0130914B014A
:100C5000232B19F480E0089581E008950E941F0677
:100C6000089510926F0090934B0180934A0181E0A8
:100C700080934F0110924D010E94830408950E94B9
:100C80003106089581E090E06F9364E06A95F1F792
:100C90006F910197C9F708950F931F93CF93DF9337
:100CA0001AB157985A98289AC0E0D0E00E9442069C
:100CB0005C9A0E94420609B15C980E9442065C9AC6
:100CC0000E9442065C98249607FF10C0AE0160E0C7
:100CD00070E08091530190915401A0915501B09121
:100CE0005601481759076A077B0700F31AB9DF91C5
:100CF000CF911F910F91089595B1282F217030E069
:100D0000220F331F482F467068E0469FA001112430
:100D1000242B9D7C292B25B99BB188708295807FDF
:100D20009F77892B8BB95C9A0E9442065C980E943F
:100D300042060895A0E0B0E0E0EAF6E00C94640F0B
:100D4000C82FD62EE42E8091AD01811105C081E01F
:100D50008093AD010E940A070E944C0614B1D5B1E0
:100D6000FAB00BB12898DD2011F05A9A01C05A98B8
:100D700094B1926394B9579A81E0E81629F08C2FC8
:100D800082958F700E947C068C2F8F700E947C064B
:100D9000FAB80BB914B9D5B9CDB7DEB7E7E00C9402
:100DA000800F42E060E00E949A06089542E061E010
:100DB0000E949A060895A1E0B0E0E1EEF6E00C94FE
:100DC000650F8C01660F660F660FE12CF12C8E2DDE
:100DD000860F806469830E94D106F801EE0DFF1D25
:100DE00084910E94D6068FEFE81AF80A6981E8E03C
:100DF000EE16F10461F72196E6E00C94810F0E9453
:100E0000DB0608950E94D606089541E060E00E9446
:100E10009A06089580E197E2A0E0B0E08093530144
:100E200090935401A0935501B0935601529A209A81
:100E3000549A8EE190E00E944E0983E00E940507DB
:100E400086E090E00E944E0983E00E94050782E060
:100E500090E00E944E0983E00E94050782E090E046
:100E60000E944E0982E00E94050782E090E00E9405
:100E70004E0988E20E94D10688E00E94D10681E0F6
:100E80000E94D10686E00E94D1068CE00E94D10625
:100E9000089581E00E94D1068091590190915A01F4
:100EA000892BF9F060E0A0E2262F30E070910C0170
:100EB00080910D0190E00197789FA001799F500DDE
:100EC0001124241735074CF4E0915901F0915A018F
:100ED000E20FF31FA0836F5FE7CF109257011092CC
:100EE000580108950E9449070895CF93DF93EC01BC
:100EF0008991882319F00E94D606FACFDF91CF910D
:100F000008950E9475070895CF93DF93EC01FE01C9
:100F10008491882321F00E94D6062196F8CFDF9194
:100F2000CF9108950E9484070895AAE0B0E0EBE90C
:100F3000F7E00C94630F1AE05AE0C52ED12CE12C97
:100F4000F12C062FA70196010E94F60ECA01B901E5
:100F50001150E1E0F0E0EC0FFD1FE10FF11D005D2D
:100F60002AE0629F00191124008361157105810533
:100F7000910539F71A3058F4E1E0F0E0EC0FFD1F6D
:100F8000E10FF11D80810E94D6061F5FF3CF2A96E4
:100F9000E8E00C947F0FCF92DF92EF92FF926B010B
:100FA0007C0197FF0BC0F094E094D094C094C11CD6
:100FB000D11CE11CF11C8DE20E94D606C701B601CE
:100FC0000E949507FF90EF90DF90CF9008950E94C8
:100FD000CB070895A5E0B0E0E0EFF7E00C94680FD0
:100FE000182F80E8898380EC8A8384E98B8384EDE1
:100FF0008C83FE01E60FF11D8181810F6D830E94BC
:10100000D106109357016D81609358012596E3E056
:101010000C94840F0E94EA070895883058F491E0F8
:1010200001C0990F8A95EAF7892FAAE2B0E0EBE2B6
:10103000F0E021C08E3060F498EF980F81E001C09D
:10104000880F9A95EAF7A4E2B0E0E5E2F0E013C079
:10105000853160F492EF980F81E001C0880F9A9576
:10106000EAF7A7E2B0E0E8E2F0E005C080E0A0E047
:10107000B0E0E0E0F0E06F3F19F49081982709C0FC
:10108000662319F09081982B04C02081982F9095A9
:10109000922390839C91982B9C93089583EF809347
:1010A000B00084BD82E08093B10085BD1092B40091
:1010B0001092B30018BC17BC60E086E00E940D08D7
:1010C00060E085E00E940D0860E08BE00E940D0862
:1010D00060E083E00E940D0808958091AE018111C7
:1010E00005C081E08093AE010E944E080895CF9321
:1010F000DF93EC010E946D08D7FF05C0D195C19523
:10110000D10981E001C080E0CF3FD10519F014F092
:10111000CFEFD0E0882319F018BCC7BD02C0C8BD0E
:1011200017BCDF91CF910895CF93DF93EC010E941C
:101130006D08D7FF05C0D195C195D10981E001C0E7
:1011400080E0CF3FD10519F014F0CFEFD0E0882335
:1011500029F01092B400C093B30004C0C093B4004F
:101160001092B300DF91CF910895CF93DF93EB01FD
:101170000E947708CE010E949408DF91CF910895D4
:101180000E94B508089584B18D7C84B985B18263CD
:1011900085B985E090E06F9364E06A95F1F76F910F
:1011A0000197C9F708958091AF01811105C081E0D1
:1011B0008093AF010E94C3080895CF93C82F0E9467
:1011C000D30883B18C23E9F38AE090E00E944E09B2
:1011D00083B18C23B1F383B18C23CF9108950E9406
:1011E000DD080895A1E0B0E0E8EFF8E00C94690FA5
:1011F00089830E94D30893B1909589818923219690
:10120000E2E00C94850F0E94F20808952F928F93CC
:101210009F932FB680916201909163010196809314
:1012200062019093630190E080916401891F809333
:10123000640190915C019C5F90935C0180915B01E3
:1012400080519742C0F090935C0180935B01809144
:101250005D0190915E01019680935D0190935E0126
:1012600090E080915F01891F80935F018091600110
:10127000891F809360012FBE9F918F912F901895A9
:1012800028EE33E0019748F0F9016F9364E06A9526
:10129000F1F76F913197C9F7F5CF08950E94400992
:1012A0000895E0E7F0E080818E7F8083A0EBB0E0DE
:1012B0008C9183608C93A1EBB0E08C91807F8C93B8
:1012C0008C9182608C93B89A8081816080837894BD
:1012D00008958091B001811105C081E08093B00133
:1012E0000E94510908950E946909E0E7F0E08081B9
:1012F0008E7F808310925D0110925E0110925F01DB
:101300001092600110925C0110925B0180818160FB
:1013100080830895682F85E691E00E94720D0895FC
:10132000462F20E0BC0185E691E00E94430E08951F
:101330000F93CF93DF9300D000D01F92CDB7DEB7CD
:101340009C0185E0E6E3F1E0DE01119601900D924B
:101350008A95E1F7662311F00FEF01C003E145E044
:10136000BE016F5F7F4F85E691E00E946A0A85E6C5
:1013700091E00E94410A0E9473090F900F900F9014
:101380000F900F90DF91CF910F91089560E00E9430
:101390009809089585E691E00E94B80E08956F932C
:1013A00064E06A95F1F76F910197C9F70895FC0120
:1013B0001182108213821282158214821682683082
:1013C00068F489E290E0918380838BE290E09383DC
:1013D00082838AE290E0958384831FC06E3070F42C
:1013E00083E290E09183808385E290E0938382831F
:1013F00084E290E09583848368500FC0653198F44F
:1014000086E290E09183808388E290E093838283F8
:1014100087E290E0958384836E5081E001C0880F5D
:101420006A95EAF786830895A7E0B0E0EAE1FAE07A
:101430000C94670F8C01FC011182108213821282BE
:101440001582148217821682613118F080E180873C
:1014500002C0FC016087F801208B642FCE01019649
:101460000E94D7098F81F80181878B819C819387A6
:1014700082878D819E81958784872796E4E00C94EE
:10148000830FFC01A485B585109779F08C91918527
:10149000892B8C93A285B3859C9181858095892326
:1014A0008C9388EC90E00E94CF090895FC01A485FC
:1014B000B585109771F08C919185892B8C93A285BD
:1014C000B3858C919185892B8C9388EC90E00E9458
:1014D000CF090895A7E0B0E0E0E7FAE00C945C0FD4
:1014E0007C014B01642F3901402F20E00E94140A37
:1014F00087010F5B1F4FF80110826701F2E4CF0EE6
:10150000D11CF60110825701F3E4AF0EB11CF501B6
:101510001082F70177866686512CF7018085581670
:1015200050F5652C712CF401E60DF71D6081CE019C
:1015300001960E94D7092F81F701E60DF71D218B37
:1015400089819A81F301EE0FFF1FEE0DFF1D92A31B
:1015500081A38332910511F4F80108C08632910508
:1015600011F4F60103C0899721F4F5018081822BE3
:1015700080835394D2CF2796EFE00C94780FA0E0AD
:10158000B0E0E5ECFAE00C945E0FEC015B016C015D
:1015900081E4C80ED11CF60180807E01F2E4EF0EDA
:1015A000F11CF70170808E010D5B1F4FF8019080D8
:1015B00080E09885891748F4F501E80FF11DE80FE0
:1015C000F11D118210828F5FF4CF84B1F6019081FA
:1015D000892B84B987B1F7019081892B87B98AB1AA
:1015E000F8019081892B8AB985B1F6019081892B08
:1015F00085B988B1F7019081892B88B98BB1F80141
:101600009081892B8BB98AE090E00E94CF0994B138
:10161000F60180818095892384B997B1F701808193
:101620008095892387B99AB1F801808180958923B3
:101630008AB995B1F60180818095892385B998B1E1
:10164000F70180818095892388B99BB1F801808159
:10165000809589238BB9E090B000D090B100809143
:10166000B00083608093B00082E08093B10040912D
:10167000B20080E090E02E853F858217930720F529
:10168000C090B2002C2D241B820F911D03B10811B4
:1016900032C0F6B0F7102FC029B129112CC010C0EC
:1016A000212F30E0A901440F551FF501E40FF51F6C
:1016B00060817181672B21F11F5F2885121780F3EC
:1016C0007F2C802E4C2DD7CFE092B000D092B1006D
:1016D00020E08885281730F5F501E20FF11DE20FB3
:1016E000F11D80819181892B21F48E859F859183C5
:1016F00080832F5FEECF03B1F6B099B010E0DDCF5D
:10170000DE01A40FB51F91960D90BC91A02D4C91B8
:10171000DE01A20FB31F51962C91422369F69183EB
:101720008083CACFCDB7DEB7EDE00C947A0FEF928D
:10173000FF920F931F93CF93DF93FC019B01F090D7
:101740007C0000917A0047B118B180917A0086FD43
:10175000FCCF80E09085891748F4D901A80FB11D0E
:10176000A80FB11D1D921C928F5FF4CF97B182A17B
:101770008095892387B998B182A18095892388B9FA
:1017800087E880937A00E12C81A1E81610F0E12C23
:1017900029C050E08085581718F5A52FB0E0EF015B
:1017A000CA0FDB1F8989806480937C0080917A0056
:1017B000806480937A0080917A0086FDFCCF6091EE
:1017C000780070917900AA0FBB1FA20FB31F8D91F3
:1017D0009C911197860F971F8D939C935F5FDACF33
:1017E000E394D2CF8085E816A0F4E901CE0DD11D97
:1017F000CE0DD11D61A170E0CB0195958795A88193
:10180000B9818A0F9B1F0E94E20E79836883E3945B
:10181000E9CFF0927C0000937A0018B947B9CDB7B0
:10182000DEB7E6E00C94810FA0E2B0E0EAE1FCE074
:101830000C94640F8C017B01D42E8FEF840F8230C7
:1018400018F4C8010E94560AD80150968C91B7012D
:10185000811110C0C8010E94BF0AC8010E94410A3C
:10186000B2E0DB123AC0BE016F5F7F4FC8010E9439
:10187000BF0A0FC0C8010E94970BC8010E94410A0D
:10188000E2E0DE122AC0BE016F5F7F4FC8010E94F6
:10189000970B40E0F80180854817F8F4842F90E01A
:1018A000880F991FF701E80FF91F21E030E02C0F96
:1018B0003D1F820F931FD8011E962D913C911F97BB
:1018C000DC018D919C91281B390B80819181820FC5
:1018D000931F918380834F5FDDCFA096E7E00C9448
:1018E000800F2F923F925F926F927F928F929F9282
:1018F000AF92BF92CF92DF92EF92FF920F931F931E
:10190000CF93DF93CDB7DEB7C056D1090FB6F894A9
:10191000DEBF0FBECDBF8C014B015A01522EDA0142
:101920008D919C91892B31F0F40180819181892BDB
:10193000F1F424C0D80118968C9190E0880F991F7B
:101940000E94960FF50191838083009709F4B1C03E
:10195000FC0120E030E0D80118968C9190E0281727
:10196000390714F7119211922F5F3F4FF4CFE12CFA
:10197000F12C6E01B1E2CB0ED11C21C0F8018085A3
:1019800090E0880F991F0E94960FD4018D939C932D
:10199000009709F48EC0FC0120E030E0D8011896D1
:1019A0008C9190E02817390714F7D8011E968D9175
:1019B0009C911F97819391932F5F3F4FEFCF452DC0
:1019C000BE016F5B7F4FC8010E94140CF801608458
:1019D000712CFE01EF5BFF4FC6019E012F5F3F4F51
:1019E000190120E030E0261537054CF5E114F1042B
:1019F00089F0DC016D917C914081518164177507FC
:101A000048F0D1016D917C91408151814617570773
:101A100048F00DC040815181DC014D935C93E1148D
:101A2000F10479F740815181D1014D935C932F5F8F
:101A30003F4FB2E02B0E311C32960296D4CFEFEF1F
:101A4000EE1AFE0AFAE0EF16F10409F0B8CF9E0193
:101A50002F5F3F4F7901360180E090E0F80120854B
:101A600030E0821793072CF5D7012D913D917D0130
:101A7000B3016C197D09D501ED91FC91E60FF71FBB
:101A8000408151814217530710F431832083F301C1
:101A9000219131913F01D401ED91FC91E60FF71FA7
:101AA000408151812417350710F43183208301963A
:101AB000D5CFC05ADF4F0FB6F894DEBF0FBECDBFF3
:101AC000DF91CF911F910F91FF90EF90DF90CF901A
:101AD000BF90AF909F908F907F906F905F903F905E
:101AE0002F9008951F93CF93DF93EC01162F8FEF64
:101AF000860F823018F0662359F014C021E0AE0141
:101B00004E5F5F4FBE01CE010E94710C123051F446
:101B1000AE014A5F5F4FBE016C5F7F4F20E0CE0198
:101B20000E94710CDF91CF911F910895A0E0B0E069
:101B3000ECE9FDE00C94620FEC018B01B42E842FD4
:101B40008D7F51F48C819D81892B09F497C08E8102
:101B50009F81892B09F492C08FEF8B0D823050F456
:101B600088819981892B09F489C08A819B81892B7D
:101B700009F484C04B2DB801CE010E94140C7801E9
:101B800000E010E0C12CD12C888590E0C816D90661
:101B90000CF074C081E0B8120AC0EA81FB81E00F4A
:101BA000F11F0190F081E02DA881B9810DC08C81D9
:101BB0009D812E813F81B1100CC0F901E00FF11F12
:101BC0000190F081E02DDC01A00FB11F8D919C915F
:101BD00028C0FC01E00FF11F40815181E881F981AB
:101BE000E00FF11F80819181EE85FF85481759072D
:101BF00010F4CF0104C08E0F9F1F841B950BD901D9
:101C0000A00FB11F2D913C91AA81BB81A00FB11FE4
:101C10004D915C912417350720F0E40FF51FE21B6E
:101C2000F30BE81BF90BA9F0D7012D913C9140E093
:101C300050E0281B390B41095109A8EEB3E00E947E
:101C4000460F9F0140E050E00E94180F37FD0AC088
:101C500002C020E030E0293EB3E03B072CF028EE44
:101C600033E002C020E030E0F701219331937F019F
:101C7000FFEFCF1ADF0A0E5F1F4F86CFCDB7DEB75B
:101C8000E9E00C947E0FA0E0B0E0E9E4FEE00C9403
:101C9000590FEC018B01822E0E94960D2884E801D9
:101CA000412C512C320100E010E0C12CD12C7601E6
:101CB000312C912C58EEA52E53E0B52E921421F123
:101CC000E991F991882021F0C5018E1B9F0BFC0141
:101CD000E93CF10524F4E333F10574F002C0332448
:101CE0003394DF01A30192010E94510FC60ED71E4B
:101CF000E81EF91E0E0F1F1F939498EE490E93E0F5
:101D0000591E611C711CDACF31101EC0492D50E0E4
:101D10004150510924EF31E0429FC001439F900D93
:101D2000529F900D11242091A9013091AA012817EA
:101D30003907B4F088EE93E0489F9001499F300D39
:101D4000589F300D11240EC0980140E050E0C701AB
:101D5000B6010E94F60E3093AA012093A90102C099
:101D600020E030E0C901CDB7DEB7E2E10C94750F99
:101D7000CF93DF93EC018A819B81009711F00E9441
:101D80002E108E819F81009711F00E942E10888165
:101D90009981009711F00E942E108C819D810097EF
:101DA00011F00E942E10DF91CF910895991B79E0D8
:101DB00004C0991F961708F0961B881F7A95C9F7DB
:101DC00080950895AA1BBB1B51E107C0AA1FBB1F2A
:101DD000A617B70710F0A61BB70B881F991F5A95B7
:101DE000A9F780959095BC01CD010895A1E21A2E26
:101DF000AA1BBB1BFD010DC0AA1FBB1FEE1FFF1FAF
:101E0000A217B307E407F50720F0A21BB30BE40BFE
:101E1000F50B661F771F881F991F1A9469F7609545
:101E20007095809590959B01AC01BD01CF010895FF
:101E3000052E97FB1EF400940E942F0F57FD07D02C
:101E40000E94F60E07FC03D04EF40C942F0F509511
:101E50004095309521953F4F4F4F5F4F0895909596
:101E60008095709561957F4F8F4F9F4F0895A29FEA
:101E7000B001B39FC001A39F700D811D1124911D5E
:101E8000B29F700D811D1124911D08950E94370F7E
:101E9000A59F900DB49F900DA49F800D911D1124BE
:101EA0000895B7FF0C94460F0E94460F821B930BB8
:101EB00008952F923F924F925F926F927F928F92EE
:101EC0009F92AF92BF92CF92DF92EF92FF920F93C9
:101ED0001F93CF93DF93CDB7DEB7CA1BDB0B0FB6D3
:101EE000F894DEBF0FBECDBF09942A883988488890
:101EF0005F846E847D848C849B84AA84B984C88426
:101F0000DF80EE80FD800C811B81AA81B981CE0F1C
:101F1000D11D0FB6F894DEBF0FBECDBFED01089501
:101F2000EE0FFF1F0590F491E02D09940F931F937E
:101F3000CF93DF938230910510F482E090E0E0913E
:101F4000B301F091B40120E030E0A0E0B0E03097C0
:101F500019F1408151810281138148175907C8F056
:101F60008417950769F4109731F012960C93129725
:101F700013961C9327C00093B3011093B40122C0A1
:101F80002115310519F04217530718F49A01BD01C4
:101F9000EF01DF01F801DBCF21153105F9F0281B36
:101FA000390B2430310580F48A819B8161157105DC
:101FB00021F0FB019383828304C09093B40180934A
:101FC000B301FE01329644C0FE01E20FF31F81937C
:101FD000919322503109398328833AC02091B1016D
:101FE0003091B201232B41F4209110013091110165
:101FF0003093B2012093B10120910E0130910F0175
:102000002115310541F42DB73EB740911201509191
:102010001301241B350BE091B101F091B201E217DD
:10202000F307A0F42E1B3F0B2817390778F0AC01FB
:102030004E5F5F4F2417350748F04E0F5F1F5093D8
:10204000B2014093B1018193919302C0E0E0F0E0CE
:10205000CF01DF91CF911F910F910895CF93DF931F
:10206000009709F481C0FC01329713821282A0917B
:10207000B301B091B401109781F420813181820FB6
:10208000931F2091B1013091B2012817390751F502
:10209000F093B201E093B10167C0ED0120E030E0C0
:1020A000CE17DF0740F44A815B819E01411551053F
:1020B000F1F0EA01F5CFD383C28340815181840FCF
:1020C000951FC817D90759F488819981840F951FE6
:1020D0000296918380838A819B81938382832115D9
:1020E000310529F4F093B401E093B3013DC0E90157
:1020F000FB83EA8349915991C40FD51FEC17FD0763
:1021000061F480819181840F951F0296E901998382
:102110008883828193819B838A83E0E0F0E012963A
:102120008D919C911397009719F0FD01DC01F7CF79
:102130008D919C9111979D012E5F3F4F820F931FB0
:102140002091B1013091B2012817390769F4309715
:1021500029F41092B4011092B30102C013821282CA
:10216000B093B201A093B101DF91CF91089510E037
:10217000C6E5D0E004C0FE010E94900F2196C7354D
:08218000D107C9F7F894FFCF65
:1021880088130F00F4010400D007040108020000BE
:10219800B5012000200000010203040506FF9C0190
:1021A800B501CF01EA0107022602470269028E0241
:1021B800B502DE020A030E0F1011126D560050729E
:0A21C800657373204200476F210089
:00000001FF
